:020000040000FA
:060000000A128A11FC2F18
:100E9A00F0308316031386000A128A115A270A129F
:100EAA008A11512F0A128A11002883120313061E6F
:100EBA005F2F602F662F061C632F642F662F313039
:100ECA00FB2F061E692F6A2F702F861C6D2F6E2F1F
:100EDA00702F3230FB2F061E732F742F7A2F061DA8
:100EEA00772F782F7A2F3330FB2F061E7D2F7E2FF8
:100EFA00842F861D812F822F842F4130FB2F861E3F
:100F0A00872F882F8E2F061C8B2F8C2F8E2F3430F5
:100F1A00FB2F861E912F922F982F861C952F962F86
:100F2A00982F3530FB2F861E9B2F9C2FA22F061D34
:100F3A009F2FA02FA22F3630FB2F861EA52FA62F5C
:100F4A00AC2F861DA92FAA2FAC2F4230FB2F061FCC
:100F5A00AF2FB02FB62F061CB32FB42FB62F3730B2
:100F6A00FB2F061FB92FBA2FC02F861CBD2FBE2FED
:100F7A00C02F3830FB2F061FC32FC42FCA2F061DC0
:100F8A00C72FC82FCA2F3930FB2F061FCD2FCE2FC0
:100F9A00D42F861DD12FD22FD42F4330FB2F861F5B
:100FAA00D72FD82FDE2F061CDB2FDC2FDE2F2A307F
:100FBA00FB2F861FE12FE22FE82F861CE52FE62F55
:100FCA00E82F3030FB2F861FEB2FEC2FF22F061D58
:100FDA00EF2FF02FF22F2330FB2F861FF52FF62F3E
:100FEA005A2F861DF92FFA2F5A2F443008008301F1
:060FFA000A128A114D2FBE
:02400E003A3F37
:00000001FF
